{
  "contractName": "studentMashood",
  "abi": [
    {
      "inputs": [
        {
          "internalType": "string",
          "name": "_semester",
          "type": "string"
        },
        {
          "internalType": "int256",
          "name": "_gpa",
          "type": "int256"
        },
        {
          "internalType": "string",
          "name": "_course",
          "type": "string"
        }
      ],
      "name": "setUserInfo",
      "outputs": [],
      "stateMutability": "nonpayable",
      "type": "function"
    },
    {
      "inputs": [],
      "name": "getUserInfo",
      "outputs": [
        {
          "internalType": "string",
          "name": "",
          "type": "string"
        },
        {
          "internalType": "int256",
          "name": "",
          "type": "int256"
        },
        {
          "internalType": "string",
          "name": "",
          "type": "string"
        }
      ],
      "stateMutability": "view",
      "type": "function",
      "constant": true
    }
  ],
  "bytecode": "0x608060405234801561001057600080fd5b50610509806100206000396000f3fe608060405234801561001057600080fd5b50600436106100365760003560e01c80634bb7c1f41461003b5780635d8d158514610057575b600080fd5b610055600480360381019061005091906102db565b610077565b005b61005f6100a9565b60405161006e939291906103ac565b60405180910390f35b8484600091906100889291906101d9565b50826001819055508181600291906100a19291906101d9565b505050505050565b606060006060600060015460028280546100c29061044a565b80601f01602080910402602001604051908101604052809291908181526020018280546100ee9061044a565b801561013b5780601f106101105761010080835404028352916020019161013b565b820191906000526020600020905b81548152906001019060200180831161011e57829003601f168201915b5050505050925080805461014e9061044a565b80601f016020809104026020016040519081016040528092919081815260200182805461017a9061044a565b80156101c75780601f1061019c576101008083540402835291602001916101c7565b820191906000526020600020905b8154815290600101906020018083116101aa57829003601f168201915b50505050509050925092509250909192565b8280546101e59061044a565b90600052602060002090601f016020900481019282610207576000855561024e565b82601f1061022057803560ff191683800117855561024e565b8280016001018555821561024e579182015b8281111561024d578235825591602001919060010190610232565b5b50905061025b919061025f565b5090565b5b80821115610278576000816000905550600101610260565b5090565b60008135905061028b816104bc565b92915050565b60008083601f8401126102a357600080fd5b8235905067ffffffffffffffff8111156102bc57600080fd5b6020830191508360018202830111156102d457600080fd5b9250929050565b6000806000806000606086880312156102f357600080fd5b600086013567ffffffffffffffff81111561030d57600080fd5b61031988828901610291565b9550955050602061032c8882890161027c565b935050604086013567ffffffffffffffff81111561034957600080fd5b61035588828901610291565b92509250509295509295909350565b61036d8161040d565b82525050565b600061037e826103f1565b61038881856103fc565b9350610398818560208601610417565b6103a1816104ab565b840191505092915050565b600060608201905081810360008301526103c68186610373565b90506103d56020830185610364565b81810360408301526103e78184610373565b9050949350505050565b600081519050919050565b600082825260208201905092915050565b6000819050919050565b60005b8381101561043557808201518184015260208101905061041a565b83811115610444576000848401525b50505050565b6000600282049050600182168061046257607f821691505b602082108114156104765761047561047c565b5b50919050565b7f4e487b7100000000000000000000000000000000000000000000000000000000600052602260045260246000fd5b6000601f19601f8301169050919050565b6104c58161040d565b81146104d057600080fd5b5056fea2646970667358221220b3edaf575fb6a798111a30ba694aed6bcf2fd3b87a294d39fe8207f350a0aa3c64736f6c63430008010033",
  "immutableReferences": {},
  "source": "// SPDX-License-Identifier: MIT\r\npragma solidity >=0.4.22 <0.9.0;\r\n\r\ncontract studentMashood {\r\n    string private semester;\r\n    int private gpa;\r\n    string private course;\r\n\r\n    function setUserInfo(string calldata _semester, int _gpa, string calldata _course) public {\r\n        semester = _semester;\r\n        gpa = _gpa;\r\n        course = _course;\r\n    }\r\n\r\n    function getUserInfo() public view returns(string memory, int, string memory)  {\r\n        return(semester, gpa, course);\r\n    }\r\n}",
  "sourcePath": "E:\\3 - Al Nafi\\Blockchain\\Labs\\solidity\\assignment_01\\contracts\\studentMashood.sol",
  "compiler": {
    "name": "solc",
    "version": "0.8.1+commit.df193b15.Emscripten.clang"
  },
  "schemaVersion": "3.4.3",
  "updatedAt": "2021-10-22T14:53:26.618Z",
  "networkType": "ethereum",
  "devdoc": {
    "kind": "dev",
    "methods": {},
    "version": 1
  },
  "userdoc": {
    "kind": "user",
    "methods": {},
    "version": 1
  }
}